{
  "contractName": "lottery",
  "abi": [
    {
      "inputs": [
        {
          "internalType": "contract Token",
          "name": "_token",
          "type": "address"
        }
      ],
      "stateMutability": "nonpayable",
      "type": "constructor"
    },
    {
      "anonymous": false,
      "inputs": [
        {
          "indexed": false,
          "internalType": "address",
          "name": "",
          "type": "address"
        }
      ],
      "name": "win",
      "type": "event"
    },
    {
      "inputs": [],
      "name": "manager",
      "outputs": [
        {
          "internalType": "address",
          "name": "",
          "type": "address"
        }
      ],
      "stateMutability": "view",
      "type": "function",
      "constant": true
    },
    {
      "inputs": [
        {
          "internalType": "uint256",
          "name": "",
          "type": "uint256"
        }
      ],
      "name": "participants",
      "outputs": [
        {
          "internalType": "address payable",
          "name": "",
          "type": "address"
        }
      ],
      "stateMutability": "view",
      "type": "function",
      "constant": true
    },
    {
      "inputs": [],
      "name": "token",
      "outputs": [
        {
          "internalType": "contract Token",
          "name": "",
          "type": "address"
        }
      ],
      "stateMutability": "view",
      "type": "function",
      "constant": true
    },
    {
      "stateMutability": "payable",
      "type": "receive",
      "payable": true
    },
    {
      "inputs": [],
      "name": "CheckBalance",
      "outputs": [
        {
          "internalType": "uint256",
          "name": "",
          "type": "uint256"
        }
      ],
      "stateMutability": "view",
      "type": "function",
      "constant": true
    },
    {
      "inputs": [],
      "name": "random",
      "outputs": [
        {
          "internalType": "uint256",
          "name": "",
          "type": "uint256"
        }
      ],
      "stateMutability": "view",
      "type": "function",
      "constant": true
    },
    {
      "inputs": [],
      "name": "selectWinner",
      "outputs": [],
      "stateMutability": "nonpayable",
      "type": "function"
    }
  ],
  "bytecode": "0x608060405234801561001057600080fd5b506040516109fa3803806109fa8339818101604052810190610032919061012e565b80600260006101000a81548173ffffffffffffffffffffffffffffffffffffffff021916908373ffffffffffffffffffffffffffffffffffffffff160217905550336000806101000a81548173ffffffffffffffffffffffffffffffffffffffff021916908373ffffffffffffffffffffffffffffffffffffffff1602179055505061015b565b600080fd5b600073ffffffffffffffffffffffffffffffffffffffff82169050919050565b60006100e9826100be565b9050919050565b60006100fb826100de565b9050919050565b61010b816100f0565b811461011657600080fd5b50565b60008151905061012881610102565b92915050565b600060208284031215610144576101436100b9565b5b600061015284828501610119565b91505092915050565b6108908061016a6000396000f3fe6080604052600436106100595760003560e01c806333a99e04146100db57806335c1d349146100f257806344e73b781461012f578063481c6a751461015a5780635ec01e4d14610185578063fc0c546a146101b0576100d6565b366100d657670de0b6b3a7640000341461007257600080fd5b6001339080600181540180825580915050600190039060005260206000200160009091909190916101000a81548173ffffffffffffffffffffffffffffffffffffffff021916908373ffffffffffffffffffffffffffffffffffffffff1602179055005b600080fd5b3480156100e757600080fd5b506100f06101db565b005b3480156100fe57600080fd5b5061011960048036038101906101149190610599565b610393565b6040516101269190610607565b60405180910390f35b34801561013b57600080fd5b506101446103d2565b6040516101519190610631565b60405180910390f35b34801561016657600080fd5b5061016f610433565b60405161017c919061066d565b60405180910390f35b34801561019157600080fd5b5061019a610457565b6040516101a79190610631565b60405180910390f35b3480156101bc57600080fd5b506101c5610491565b6040516101d291906106e7565b60405180910390f35b60008054906101000a900473ffffffffffffffffffffffffffffffffffffffff1673ffffffffffffffffffffffffffffffffffffffff163373ffffffffffffffffffffffffffffffffffffffff161461023357600080fd5b6003600180549050101561024657600080fd5b6000610250610457565b9050600080600180549050836102669190610731565b90506001818154811061027c5761027b610762565b5b9060005260206000200160009054906101000a900473ffffffffffffffffffffffffffffffffffffffff1691508173ffffffffffffffffffffffffffffffffffffffff166108fc6102cb6103d2565b9081150290604051600060405180830381858888f193505050501580156102f6573d6000803e3d6000fd5b507fa34cc845dfe7e94da90b41e77f799f7c29c20a39271c97a2469ce08afed0830b8260405161032691906107b2565b60405180910390a1600067ffffffffffffffff811115610349576103486107cd565b5b6040519080825280602002602001820160405280156103775781602001602082028036833780820191505090505b506001908051906020019061038d9291906104b7565b50505050565b600181815481106103a357600080fd5b906000526020600020016000915054906101000a900473ffffffffffffffffffffffffffffffffffffffff1681565b60008060009054906101000a900473ffffffffffffffffffffffffffffffffffffffff1673ffffffffffffffffffffffffffffffffffffffff163373ffffffffffffffffffffffffffffffffffffffff161461042d57600080fd5b47905090565b60008054906101000a900473ffffffffffffffffffffffffffffffffffffffff1681565b600044426001805490506040516020016104739392919061081d565b6040516020818303038152906040528051906020012060001c905090565b600260009054906101000a900473ffffffffffffffffffffffffffffffffffffffff1681565b828054828255906000526020600020908101928215610530579160200282015b8281111561052f5782518260006101000a81548173ffffffffffffffffffffffffffffffffffffffff021916908373ffffffffffffffffffffffffffffffffffffffff160217905550916020019190600101906104d7565b5b50905061053d9190610541565b5090565b5b8082111561055a576000816000905550600101610542565b5090565b600080fd5b6000819050919050565b61057681610563565b811461058157600080fd5b50565b6000813590506105938161056d565b92915050565b6000602082840312156105af576105ae61055e565b5b60006105bd84828501610584565b91505092915050565b600073ffffffffffffffffffffffffffffffffffffffff82169050919050565b60006105f1826105c6565b9050919050565b610601816105e6565b82525050565b600060208201905061061c60008301846105f8565b92915050565b61062b81610563565b82525050565b60006020820190506106466000830184610622565b92915050565b6000610657826105c6565b9050919050565b6106678161064c565b82525050565b6000602082019050610682600083018461065e565b92915050565b6000819050919050565b60006106ad6106a86106a3846105c6565b610688565b6105c6565b9050919050565b60006106bf82610692565b9050919050565b60006106d1826106b4565b9050919050565b6106e1816106c6565b82525050565b60006020820190506106fc60008301846106d8565b92915050565b7f4e487b7100000000000000000000000000000000000000000000000000000000600052601260045260246000fd5b600061073c82610563565b915061074783610563565b92508261075757610756610702565b5b828206905092915050565b7f4e487b7100000000000000000000000000000000000000000000000000000000600052603260045260246000fd5b600061079c826106b4565b9050919050565b6107ac81610791565b82525050565b60006020820190506107c760008301846107a3565b92915050565b7f4e487b7100000000000000000000000000000000000000000000000000000000600052604160045260246000fd5b6000819050919050565b61081761081282610563565b6107fc565b82525050565b60006108298286610806565b6020820191506108398285610806565b6020820191506108498284610806565b60208201915081905094935050505056fea26469706673582212203fcb91f7a14d21360c9c3ada44e391cdd51484c552fd48ebd8811fc1af24d25864736f6c634300080d0033",
  "immutableReferences": {},
  "source": "//SPDX-License-Identifier: UNLICENSED\r\npragma solidity >=0.5.0 < 0.9.0;\r\nimport \"./ERC20_LBT.sol\";\r\n    contract lottery\r\n    {\r\n        address public manager;\r\n        address payable[] public participants;\r\n        Token public token; \r\n        event win(address);\r\n        constructor(Token _token)\r\n        {     token = _token;\r\n              manager = msg.sender;\r\n        }\r\n        receive() external payable\r\n        {\r\n            require(msg.value==1 ether);\r\n            participants.push(payable(msg.sender));\r\n        }\r\n        function CheckBalance() public view returns(uint)\r\n        {\r\n\r\n         require(msg.sender==manager);\r\n        return address(this).balance;\r\n        }\r\n        function random() public view returns(uint)\r\n        {\r\n        return uint(keccak256(abi.encodePacked(block.difficulty,block.timestamp,participants.length)));\r\n    \r\n        }\r\n        function selectWinner() public\r\n        {\r\n            require(msg.sender==manager);\r\n            require(participants.length>=3);\r\n            uint r = random();\r\n            address payable winner;\r\n            uint index = r % participants.length;\r\n            winner = participants[index];\r\n            winner.transfer(CheckBalance());\r\n            emit win(winner);\r\n            participants=new address payable[](0);\r\n\r\n        }\r\n\r\n    }\r\n",
  "sourcePath": "F:\\profiles\\amit\\LBT-Crypto\\contracts\\Lottery.sol",
  "compiler": {
    "name": "solc",
    "version": "0.8.13+commit.abaa5c0e.Emscripten.clang"
  },
  "schemaVersion": "3.4.7",
  "updatedAt": "2022-06-09T12:07:48.665Z",
  "networkType": "ethereum",
  "devdoc": {
    "kind": "dev",
    "methods": {},
    "version": 1
  },
  "userdoc": {
    "kind": "user",
    "methods": {},
    "version": 1
  }
}