{
  "contractName": "lottery",
  "abi": [
    {
      "inputs": [
        {
          "internalType": "contract Token",
          "name": "_token",
          "type": "address"
        }
      ],
      "stateMutability": "nonpayable",
      "type": "constructor"
    },
    {
      "inputs": [],
      "name": "manager",
      "outputs": [
        {
          "internalType": "address",
          "name": "",
          "type": "address"
        }
      ],
      "stateMutability": "view",
      "type": "function",
      "constant": true
    },
    {
      "inputs": [
        {
          "internalType": "uint256",
          "name": "",
          "type": "uint256"
        }
      ],
      "name": "participants",
      "outputs": [
        {
          "internalType": "address payable",
          "name": "",
          "type": "address"
        }
      ],
      "stateMutability": "view",
      "type": "function",
      "constant": true
    },
    {
      "inputs": [],
      "name": "token",
      "outputs": [
        {
          "internalType": "contract Token",
          "name": "",
          "type": "address"
        }
      ],
      "stateMutability": "view",
      "type": "function",
      "constant": true
    },
    {
      "stateMutability": "payable",
      "type": "receive",
      "payable": true
    },
    {
      "inputs": [],
      "name": "CheckBalance",
      "outputs": [
        {
          "internalType": "uint256",
          "name": "",
          "type": "uint256"
        }
      ],
      "stateMutability": "view",
      "type": "function",
      "constant": true
    },
    {
      "inputs": [],
      "name": "random",
      "outputs": [
        {
          "internalType": "uint256",
          "name": "",
          "type": "uint256"
        }
      ],
      "stateMutability": "view",
      "type": "function",
      "constant": true
    },
    {
      "inputs": [],
      "name": "selectWinner",
      "outputs": [],
      "stateMutability": "nonpayable",
      "type": "function"
    }
  ],
  "bytecode": "0x608060405234801561001057600080fd5b506040516109873803806109878339818101604052810190610032919061012e565b80600260006101000a81548173ffffffffffffffffffffffffffffffffffffffff021916908373ffffffffffffffffffffffffffffffffffffffff160217905550336000806101000a81548173ffffffffffffffffffffffffffffffffffffffff021916908373ffffffffffffffffffffffffffffffffffffffff1602179055505061015b565b600080fd5b600073ffffffffffffffffffffffffffffffffffffffff82169050919050565b60006100e9826100be565b9050919050565b60006100fb826100de565b9050919050565b61010b816100f0565b811461011657600080fd5b50565b60008151905061012881610102565b92915050565b600060208284031215610144576101436100b9565b5b600061015284828501610119565b91505092915050565b61081d8061016a6000396000f3fe6080604052600436106100595760003560e01c806333a99e04146100db57806335c1d349146100f257806344e73b781461012f578063481c6a751461015a5780635ec01e4d14610185578063fc0c546a146101b0576100d6565b366100d657670de0b6b3a7640000341461007257600080fd5b6001339080600181540180825580915050600190039060005260206000200160009091909190916101000a81548173ffffffffffffffffffffffffffffffffffffffff021916908373ffffffffffffffffffffffffffffffffffffffff1602179055005b600080fd5b3480156100e757600080fd5b506100f06101db565b005b3480156100fe57600080fd5b5061011960048036038101906101149190610562565b61035c565b60405161012691906105d0565b60405180910390f35b34801561013b57600080fd5b5061014461039b565b60405161015191906105fa565b60405180910390f35b34801561016657600080fd5b5061016f6103fc565b60405161017c9190610636565b60405180910390f35b34801561019157600080fd5b5061019a610420565b6040516101a791906105fa565b60405180910390f35b3480156101bc57600080fd5b506101c561045a565b6040516101d291906106b0565b60405180910390f35b60008054906101000a900473ffffffffffffffffffffffffffffffffffffffff1673ffffffffffffffffffffffffffffffffffffffff163373ffffffffffffffffffffffffffffffffffffffff161461023357600080fd5b6003600180549050101561024657600080fd5b6000610250610420565b90506000806001805490508361026691906106fa565b90506001818154811061027c5761027b61072b565b5b9060005260206000200160009054906101000a900473ffffffffffffffffffffffffffffffffffffffff1691508173ffffffffffffffffffffffffffffffffffffffff166108fc6102cb61039b565b9081150290604051600060405180830381858888f193505050501580156102f6573d6000803e3d6000fd5b50600067ffffffffffffffff8111156103125761031161075a565b5b6040519080825280602002602001820160405280156103405781602001602082028036833780820191505090505b5060019080519060200190610356929190610480565b50505050565b6001818154811061036c57600080fd5b906000526020600020016000915054906101000a900473ffffffffffffffffffffffffffffffffffffffff1681565b60008060009054906101000a900473ffffffffffffffffffffffffffffffffffffffff1673ffffffffffffffffffffffffffffffffffffffff163373ffffffffffffffffffffffffffffffffffffffff16146103f657600080fd5b47905090565b60008054906101000a900473ffffffffffffffffffffffffffffffffffffffff1681565b6000444260018054905060405160200161043c939291906107aa565b6040516020818303038152906040528051906020012060001c905090565b600260009054906101000a900473ffffffffffffffffffffffffffffffffffffffff1681565b8280548282559060005260206000209081019282156104f9579160200282015b828111156104f85782518260006101000a81548173ffffffffffffffffffffffffffffffffffffffff021916908373ffffffffffffffffffffffffffffffffffffffff160217905550916020019190600101906104a0565b5b509050610506919061050a565b5090565b5b8082111561052357600081600090555060010161050b565b5090565b600080fd5b6000819050919050565b61053f8161052c565b811461054a57600080fd5b50565b60008135905061055c81610536565b92915050565b60006020828403121561057857610577610527565b5b60006105868482850161054d565b91505092915050565b600073ffffffffffffffffffffffffffffffffffffffff82169050919050565b60006105ba8261058f565b9050919050565b6105ca816105af565b82525050565b60006020820190506105e560008301846105c1565b92915050565b6105f48161052c565b82525050565b600060208201905061060f60008301846105eb565b92915050565b60006106208261058f565b9050919050565b61063081610615565b82525050565b600060208201905061064b6000830184610627565b92915050565b6000819050919050565b600061067661067161066c8461058f565b610651565b61058f565b9050919050565b60006106888261065b565b9050919050565b600061069a8261067d565b9050919050565b6106aa8161068f565b82525050565b60006020820190506106c560008301846106a1565b92915050565b7f4e487b7100000000000000000000000000000000000000000000000000000000600052601260045260246000fd5b60006107058261052c565b91506107108361052c565b9250826107205761071f6106cb565b5b828206905092915050565b7f4e487b7100000000000000000000000000000000000000000000000000000000600052603260045260246000fd5b7f4e487b7100000000000000000000000000000000000000000000000000000000600052604160045260246000fd5b6000819050919050565b6107a461079f8261052c565b610789565b82525050565b60006107b68286610793565b6020820191506107c68285610793565b6020820191506107d68284610793565b60208201915081905094935050505056fea2646970667358221220fbd32a56e682c6d039314cca5251189008774d8b86a3515b4bda95022b0213b664736f6c634300080d0033",
  "immutableReferences": {},
  "source": "pragma solidity >=0.5.0 < 0.9.0;\nimport \"./ERC20_LBT.sol\";\n    contract lottery\n    {\n        address public manager;\n        address payable[] public participants;\n        Token public token; \n        constructor(Token _token)\n        {     token = _token;\n              manager = msg.sender;\n        }\n        receive() external payable\n        {\n            require(msg.value==1 ether);\n            participants.push(payable(msg.sender));\n        }\n        function CheckBalance() public view returns(uint)\n        {\n\n         require(msg.sender==manager);\n        return address(this).balance;\n        }\n        function random() public view returns(uint)\n        {\n        return uint(keccak256(abi.encodePacked(block.difficulty,block.timestamp,participants.length)));\n    \n        }\n        function selectWinner() public\n        {\n            require(msg.sender==manager);\n            require(participants.length>=3);\n            uint r = random();\n            address payable winner;\n            uint index = r % participants.length;\n            winner = participants[index];\n            winner.transfer(CheckBalance());\n            participants=new address payable[](0);\n\n        }\n\n    }\n",
  "sourcePath": "/Users/amit/Desktop/untitled folder 2/LBT-Crypto/contracts/Lottery.sol",
  "compiler": {
    "name": "solc",
    "version": "0.8.13+commit.abaa5c0e.Emscripten.clang"
  },
  "schemaVersion": "3.4.7",
  "updatedAt": "2022-05-31T15:02:06.104Z",
  "networkType": "ethereum",
  "devdoc": {
    "kind": "dev",
    "methods": {},
    "version": 1
  },
  "userdoc": {
    "kind": "user",
    "methods": {},
    "version": 1
  }
}